:020000040000FA
:100000000C949F000C94510E0C942A0E0C94C70073
:100010000C94C7000C94C7000C94C7000C94C70044
:100020000C94C7000C94C7000C94C7000C94C70034
:100030000C94C7000C94C7000C94C7000C94C70024
:100040000C94E00D0C94C7000C949E0E0C94780E4A
:100050000C94C7000C94C7000C94C7000C94C70004
:100060000C94D00E0C94C70008000000BE922449E6
:10007000123EABAAAA2ABECDCCCC4C3E00000080DA
:10008000BEABAAAAAA3E00000000BF000000803F4D
:100090000000000000084178D3BB4387D1133D190D
:1000A0000E3CC3BD4282AD2B3E68EC8276BED98F3A
:1000B000E1A93E4C80EFFFBE01C4FF7F3F0000007E
:1000C000000031363A33303A3330004D617220311E
:1000D0003920323032350000000000240027002A89
:1000E0000000000000250028002B00000000002375
:1000F000002600290004040404040404040202028B
:100100000202020303030303030102040810204058
:1001100080010204081020010204081020000000E1
:1001200008000201000003040700000000000000B6
:10013000001F1C1F1E1F1E1F1F1E1F1EEF0F11243E
:100140001FBECFEFD8E0DEBFCDBF27E0A2E9B5E00C
:1001500001C01D92AD37B207E1F715E0A0E0B1E0B4
:10016000E6EEFEE302C005900D92A239B107D9F781
:1001700010E0CFE9D0E004C02197FE010E946B1D82
:10018000CE39D107C9F70E945A100C94711F0C94F4
:100190000000CF92DF92EF92FF92209151073091B1
:1001A0005207211544E0340749F1A0F42115310527
:1001B00009F454C02115324009F45EC08CE98093E3
:1001C0005D0760E070E088EC92ECFF90EF90DF90CC
:1001D000CF900895211548E0340771F121154AE0C8
:1001E000340799F12115364049F73FE6C32E32E135
:1001F000D32E33E8E32E3FE3F32E08C07FE6C72E6D
:1002000072E1D72E73E0E72E70E4F72EBC01072EC3
:10021000000C880B990B0E941A1AA70196010E94E4
:10022000791A20914C0722FF22C020E03EEF4FEFC9
:1002300056E40E94DE1BC9CF6FE6C62E62E1D62EC1
:1002400063E0E62E6FE3F62EE1CF5FE6C52E52E1C6
:10025000D52E53E8E52E5EE3F52ED8CF46EAC42E20
:100260004BE9D42E44ECE42E40E4F42ECFCF20E032
:1002700030EE4FEF54E4DDCF2FE6C22E22E1D22E36
:1002800023E8E22E20E4F22EC1CF089508958330B2
:1002900081F028F4813099F08230A9F008958730F8
:1002A000A9F08830C9F08430B1F4809180008F7D4E
:1002B00003C0809180008F7780938000089584B57B
:1002C0008F7784BD089584B58F7DFBCF8091B0007A
:1002D0008F778093B00008958091B0008F7DF9CF23
:1002E000CF93DF93282F30E0F901E35EFE4F849136
:1002F000F901E75FFE4FD491F901EB50FF4FC49134
:10030000CC23A1F081110E944701EC2FF0E0EE0F09
:10031000FF1FE551FF4FA591B491EC91ED2381E0D2
:1003200090E009F480E0DF91CF91089580E090E0C3
:10033000FACF1F93CF93DF93282F30E0F901E35ECC
:10034000FE4F8491F901E75FFE4FD491F901EB5024
:10035000FF4FC491CC23A9F0162F81110E944701B1
:10036000EC2FF0E0EE0FFF1FEF51FF4FA591B4917E
:100370008FB7F894EC91111108C0D095DE23DC936F
:100380008FBFDF91CF911F910895DE2BF8CFFF92A1
:100390000F931F93CF93DF93D82FF62EC0E00BE47B
:1003A00010E060E0809166070E949901C801019702
:1003B000F1F76D2F661F6627661F809165070E9403
:1003C0009901C8010197F1F761E0809166070E94E9
:1003D0009901C8010197F1F7CF5FDD0FFC12E1CF62
:1003E000DF91CF911F910F91FF9008950F931F936D
:1003F000CF93DF93C82FD62F04E617E060E0F80113
:1004000080810E94990163E080EA0E94C70166E052
:100410008C2F880F880F880F0E94C70168E08D2FEE
:100420000E94C701EC2FF0E0EC59F84FD38361E054
:10043000F8018081DF91CF911F910F910C94990168
:100440001F93CF93DF93182FC4E6D7E060E0888135
:100450000E94990164E080E80E94C70168E0812F52
:100460000E94C70161E08881DF91CF911F910C94B8
:100470009901CF93DF9390E0FC01E75FFE4F249159
:100480008B509F4FFC0184918823C9F090E0880F26
:10049000991FFC01E952FF4FA591B491FC01EF5166
:1004A000FF4FC591D49161110DC09FB7F8948C9105
:1004B000209582238C938881282328839FBFDF91F6
:1004C000CF910895623051F49FB7F8943C91822FF8
:1004D000809583238C93E8812E2BEFCF8FB7F894F0
:1004E000EC912E2B2C938FBFEACF3FB7F8948091DD
:1004F000270690912806A0912906B0912A0626B5D4
:10050000A89B05C02F3F19F00196A11DB11D3FBF4B
:10051000BA2FA92F982F8827BC01CD01620F711D1A
:10052000811D911D42E0660F771F881F991F4A9514
:10053000D1F708958F929F92AF92BF92CF92DF92A0
:10054000EF92FF926B017C010E9475024B015C01EE
:10055000C114D104E104F104B9F00E9475026819D4
:1005600079098A099B09683E73408105910580F3EA
:1005700021E0C21AD108E108F10888EE880E83E074
:10058000981EA11CB11CE4CFFF90EF90DF90CF909C
:10059000BF90AF909F908F9008952FB7F89460917F
:1005A00023067091240680912506909126062FBF80
:1005B0000895CF92DF92EF92FF920F931F930E94C4
:1005C000750200919605109197052091980530913C
:1005D0009905012B022B032BC1F000919605109178
:1005E000970520919805309199056B017C01C01AFF
:1005F000D10AE20AF30A97018601009316061093C6
:100600001706209318063093190660939605709389
:10061000970580939805909399050E94CD02609369
:100620001E0670931F06809320069093210629E7EB
:100630003AEF4FEA58E36091EF057091F005809131
:10064000F1059091F2050E94721B6093EF05709383
:10065000F0058093F1059093F20529E73AEF4FEA10
:1006600058E36091FD057091FE058091FF05909122
:1006700000060E94721B6093FD057093FE05809337
:10068000FF05909300068091920590919305A091AB
:100690009405B09195050196A11DB11D8093920519
:1006A00090939305A0939405B09395051F910F9196
:1006B000FF90EF90DF90CF9008950895AF92BF9292
:1006C000CF92DF92EF92FF920F931F93CF93DF931E
:1006D0006C017B018B01040F151FEB015E01AE184D
:1006E000BF08C017D10759F06991D601ED91FC916F
:1006F0000190F081E02DC6010995892B79F7C5019C
:10070000DF91CF911F910F91FF90EF90DF90CF90ED
:10071000BF90AF900895FC01538D448D252F30E09C
:10072000842F90E0821B930B541710F0CF960895FE
:1007300001970895FC01918D828D981761F0A28D2B
:10074000AE0FBF2FB11D5D968C91928D9F5F9F73F1
:10075000928F90E008958FEF9FEF08950F931F936E
:100760000E94CD026093AB067093AC068093AD06F9
:100770009093AE0683EA96E00E949A0397FF1DC00D
:100780000E94CD020091AB061091AC062091AD06FF
:100790003091AE06601B710B820B930B0091A70684
:1007A0001091A8062091A9063091AA06601771073A
:1007B00082079307F8F28FEF9FEF1F910F91089533
:1007C000FC01918D828D981731F0828DE80FF11D1B
:1007D000858D90E008958FEF9FEF0895FC01918D36
:1007E000228D892F90E0805C9F4F821B91098F732F
:1007F0009927089583EA96E00E94EE0321E0892B71
:1008000009F420E0822F089580E090E0892B29F000
:100810000E94FA0381110C9400000895FC01A48D3C
:10082000A80FB92FB11DA35ABF4F2C91848D90E012
:1008300001968F739927848FA689B7892C93A089F5
:10084000B1898C91837080648C93938D848D98137F
:1008500006C00288F389E02D80818F7D8083089512
:10086000EF92FF920F931F93CF93DF93EC0181E000
:10087000888F9B8D8C8D98131AC0E889F9898081A7
:1008800085FF15C09FB7F894EE89FF896083E889DA
:10089000F98980818370806480839FBF81E090E0CC
:1008A000DF91CF911F910F91FF90EF900895F62E59
:1008B0000B8D10E00F5F1F4F0F731127E02E8C8DF3
:1008C0008E110CC00FB607FCFACFE889F989808138
:1008D00085FFF5CFCE010E940E04F1CFEB8DEC0F1A
:1008E000FD2FF11DE35AFF4FF0829FB7F8940B8F55
:1008F000EA89FB8980818062CFCFCF93DF93EC01BF
:10090000888D8823B9F0AA89BB89E889F9898C91F7
:1009100085FD03C0808186FD0DC00FB607FCF7CFB3
:100920008C9185FFF2CF808185FFEDCFCE010E94B3
:100930000E04E9CFDF91CF910895FC01908190538F
:100940009A3008F090E0818180532AE0929F800DD8
:10095000112408952091BB05260F3327331F213220
:100960003105ECF420919D06FC0190E080E02430FC
:1009700069F082E00895A091BB052191AC01455634
:100980005A4FA40FB52FB11D2C930196861798F3DB
:100990008091BB05680F6093BB0580E0089581E0FE
:1009A000089510929D0681E080937C061092770650
:1009B00061E082E10E94990161E083E10E94990176
:1009C000E9EBF0E080818E7F808380818D7F808362
:1009D00088E48093B80085E48093BC000895109269
:1009E00032061092310610923406109256060E947A
:1009F000D10485E491E090932E0680932D0686E441
:100A000091E090932C0680932B060895CF93DF936B
:100A100091E090939A058823B9F0C091B800D091E5
:100A2000BA008091BC008A7B8093BC0060E082E1C8
:100A30000E94990160E083E10E9499010E94D10423
:100A4000D093BA00C093B800DF91CF9108958F92F0
:100A50009F92AF92BF92CF92DF92EF92FF920F934D
:100A60001F93CF93DF93D82FC62F142F613208F036
:100A70009CC00E9475026B017C0180919D068111D2
:100A80006FC081E080939D0610937C069FEF90934A
:100A90007B0610927A069C0F9093790680937806D5
:100AA00080917806DD0FD82BD09378068091770659
:100AB000813009F07CC0109277060E9475026B01AC
:100AC0007C01809178068093BB0080919F06909175
:100AD000A006A091A106B091A206892B8A2B8B2B90
:100AE000A1F00E94750200919F061091A00620912E
:100AF000A1063091A2066C197D098E099F0906177F
:100B000017072807390708F44CC08091BC0083FD03
:100B1000D8CF85EC8093BC000E9475026B017C01EC
:100B200080919D06813009F444C080917A068C172B
:100B300010F4C0917A06E7E5F6E0ADE7B6E080E0B4
:100B40008C1359C08C2FDF91CF911F910F91FF9083
:100B5000EF90DF90CF90BF90AF909F908F900895CF
:100B600080919F069091A006A091A106B091A20647
:100B7000892B8A2B8B2B09F480CF0E9475028090E1
:100B80009F069090A006A090A106B090A2066C19B6
:100B90007D098E099F0986169706A806B90608F0F2
:100BA0006CCF80919E060E940605C0E0CBCF85EEFB
:100BB000B1CF80919F069091A006A091A106B0911F
:100BC000A206892B8A2B8B2B09F4AACF0E947502CF
:100BD00000919F061091A0062091A1063091A206D7
:100BE0006C197D098E099F09061717072807390711
:100BF00008F096CFD6CF91919D938F5FA1CF8F9222
:100C00009F92AF92BF92CF92DF92EF92FF920F939B
:100C10001F93CF93DF93D0915606D13208F0D7C0FF
:100C2000182FC09155060E9475026B017C018091BE
:100C30009D0681116BC082E080939D0610937C0617
:100C40008FEF80937B0610927A06D0937906A5E306
:100C5000B6E0E7E5F6E080E0D81391C010927806A0
:100C600080917806CC0FC82BC093780680917706C8
:100C7000813009F088C0109277060E9475026B01DE
:100C80007C01809178068093BB0080919F069091B3
:100C9000A006A091A106B091A206892B8A2B8B2BCE
:100CA000A1F00E94750200919F061091A00620916C
:100CB000A1063091A2066C197D098E099F090617BD
:100CC00017072807390708F442C08091BC0083FD4C
:100CD000D8CF85EC8093BC000E9475026B017C012B
:100CE00080919D06823009F450C080917B068F3F31
:100CF00009F46FC080917B06803209F46CC080914A
:100D00007B06803309F469C084E026C080919F0689
:100D10009091A006A091A106B091A206892B8A2BE2
:100D20008B2B09F484CF0E94750280909F069090CF
:100D3000A006A090A106B090A2066C197D098E09AC
:100D40009F0986169706A806B90608F070CF80910D
:100D50009E060E94060585E0109234061092560603
:100D600010923306DF91CF911F910F91FF90EF907A
:100D7000DF90CF90BF90AF909F908F9008959D91FE
:100D800091938F5F69CF85EEA5CF80919F0690915B
:100D9000A006A091A106B091A206892B8A2B8B2BCD
:100DA00009F49ECF0E94750200919F061091A00643
:100DB0002091A1063091A2066C197D098E099F0928
:100DC000061717072807390708F08ACFC0CF81E038
:100DD000C3CF80E0C1CF82E0BFCF83E0BDCF089515
:100DE000E091320680913106E81730F4F0E0E358E4
:100DF000F94F808190E008958FEF9FEF08959091D3
:100E00003206809131062FEF3FEF981748F4E92F13
:100E1000F0E0E358F94F208130E09F5F9093320675
:100E2000C90108958091310690913206891B990B72
:100E30000895CF92DF92EF92FF920F931F93CF937B
:100E4000DF937C01CB018A0120913306222389F0B4
:100E5000EB016B01C40ED51ECC15DD0569F069915F
:100E6000D701ED91FC910190F081E02DC70109952A
:100E7000F3CF642F0E94AA04C801DF91CF911F9184
:100E80000F91FF90EF90DF90CF900895CF93DF9375
:100E90001F92CDB7DEB76983209133062223F9F084
:100EA00020915606203258F021E030E0FC013383D7
:100EB000228390E080E00F90DF91CF9108958091A0
:100EC0003406E82FF0E0EB5CF94F998190838F5F57
:100ED000809334068093560681E090E0ECCF61E089
:100EE000CE0101960E94AA04F7CF81E00C94FF0581
:100EF000CF93DF93EC018B818823A9F089819A81BC
:100F0000288131E030933306209355061092340641
:100F1000109256060E94750791E0811190E0892F8A
:100F2000DF91CF9108950E94EF0481E08B83CE0181
:100F30000E947807982F8111E1CFF1CF90E080E0F7
:100F40000895DC01FC01E252FA4F908121E030E08B
:100F500001C0220F6A95EAF7442331F0292B208340
:100F600060818A2F0C94F60120952923F8CF8031D7
:100F7000910528F46830710510F40C94A1070895C8
:100F8000AF92BF92DF92EF92FF920F931F93CF9396
:100F9000DF938A30D0F5D42EEB01E82FF0E0E35751
:100FA000FC4FA0807B0110E000E0B12CF7018081B4
:100FB000918197FD0EC06281738177FD0AC0A50102
:100FC000002E02C0559547950A94E2F741700E94A1
:100FD000B7070F5F1F4FF4E0EF0EF11C073011054C
:100FE00029F78C8D9D8D97FD10C06E8D7F8D77FDBF
:100FF0000CC04D2DDF91CF911F910F91FF90EF907D
:10100000DF90BF90AF900C94B707DF91CF911F9105
:101010000F91FF90EF90DF90BF90AF9008950F93E6
:101020001F93CF930EED15E0C0E0F80111928F01F0
:1010300060E08C2F0E94F601CF5FC031B1F7CF91F5
:101040001F910F910895CF92DF92EF92FF920F932D
:101050001F93CF93DF9300D000D0CDB7DEB7498385
:101060005A836B837C83182FCE0101967C0104E0A8
:10107000010FCC24C39487E5D82EC0923306D092BA
:101080005506109234061092560660E080E497E010
:101090000E944607612F80E497E00E944607F7010F
:1010A00061917F0180E497E00E94460780E497E029
:1010B0000E94750765E070E080E090E00E949A026F
:1010C0001F5F1013DACF0F900F900F900F90DF91EA
:1010D000CF911F910F91FF90EF90DF90CF900895E7
:1010E000CF93DF93C82F80915E0790915F0721E037
:1010F00020933306C093550610923406109256067C
:10110000DC01ED91FC910190F081E02D0995809139
:101110005E0790915F070E947507811129C041E029
:1011200062E08C2F0E9427051092320680933106D0
:101130008230F1F480915E0790915F07DC01ED91C0
:10114000FC910284F385E02D0995D82FB0E0CB2FD8
:1011500080915E0790915F07DC01ED91FC91028424
:10116000F385E02D09958C0F9D1FDF91CF91089598
:101170008AE980935D0790E080E0F7CF8F929F929D
:10118000AF92BF92CF92DF92EF92FF920F931F9395
:10119000CF93DF938C01609151077091520780913A
:1011A000530790915407682B792B706880915507ED
:1011B00090915607682B792B602B712B80915707E4
:1011C0008111606180915807811168608091590791
:1011D0008111646080915A07EB01C82B20914E0762
:1011E00080915E0790915F0731E030933306209342
:1011F00055061092340610925606DC01ED91FC91D2
:101200000190F081E02D61E0099580915E07909159
:101210005F07DC01ED91FC910190F081E02D6D2FD5
:10122000099580915E0790915F07DC01ED91FC913B
:101230000190F081E02D6C2F099580915E079091CF
:101240005F070E947507882319F08AE980935D077C
:1012500010935C0700935B078091530790915407AC
:1012600081159140E9F50E94CD024B015C0120916E
:1012700055073091560785E0369527958A95E1F711
:1012800080E890E002C0959587952A95E2F7865F01
:10129000C82ED12CF12CE12C61E080914E070E94E8
:1012A000700897FD24C00E94CD02681979098A0947
:1012B0009B09C616D706E806F90670F78BE98093F6
:1012C0005D078BE99FEFDF91CF911F910F91FF9009
:1012D000EF90DF90CF90BF90AF909F908F90089548
:1012E00060914F0770E090E080E00E949A0260E019
:1012F00080914E070E94700820915007222319F315
:1013000002C0959587952A95E2F7DDCF1F93CF937D
:10131000DF93DC011496ED91FC91E417F50710F4CE
:1013200090E01FC0122FEA01FC018181928120818F
:1013300031E0309333062093550610923406109214
:101340005606DC01ED91FC910280F381E02D0995B8
:10135000C817D90729F7812F0E94FF0591E0811155
:10136000DFCF892FDF91CF911F9108956F927F92E8
:101370008F929F92AF92BF92CF92DF92EF92FF92A5
:101380000F931F93CF93DF936C013B017A0110E021
:1013900000E0D60114968D919C91E701C01BD10B02
:1013A0008C179D0708F4EC0141E0C7018C1B9D0BD5
:1013B0000817190708F440E06C2FC13208F060E20A
:1013C000F60180810E942705109232068093310633
:1013D0008C171D0679F54301800E911E5401C5013D
:1013E000881999098C179D0778F4D60111968D916B
:1013F0009C91DC01ED91FC910284F385E02D09952F
:10140000F50181935F01EBCF0C0F1D1F0E151F051A
:1014100008F4BFCF81E0DF91CF911F910F91FF9032
:10142000EF90DF90CF90BF90AF909F908F907F9084
:101430006F90089580E0EFCFCF93DF9300D0CDB7CA
:10144000DEB78FE08A8321E041E050E0BE016E5FAD
:101450007F4F80912F06909130060E94860941E0CF
:1014600050E0BE016F5F7F4F80912F069091300654
:101470000E94B60989810F900F90DF91CF91089556
:101480001F93CF93DF93CDB7DEB72A970FB6F894AB
:10149000DEBF0FBECDBFFC011A82198235812AE062
:1014A000832F622F0E94151D982F880F890F880F98
:1014B000830F8A833481832F0E94151D982F880FF4
:1014C000890F880F830F8B833381832F0E94151D13
:1014D000982F880F890F880F830F8C831281318199
:1014E0002081422F50E0612F70E0E1E3F1E081E0E4
:1014F000831730F49491690F711D8F5F3196F8CF87
:10150000333028F0822F837011F46F5F7F4FEDE648
:10151000F1E04E9FC0014F9F900D5E9F900D1124F2
:1015200005964D5F5F4F5695479556954795840FA5
:10153000951F860F971F67E070E00E94211D8111A3
:1015400001C087E08D834AE0812F642F0E94151D22
:10155000982F880F890F880F810F8E83832F0E9409
:10156000151D982F880F890F880F830F8F83822F67
:101570000E94151D982F880F890F880F820F88876A
:1015800021E048E050E0BE016F5F7F4F80912F0661
:10159000909130060E9486090E941C0A9FE099875C
:1015A0008F778A8721E042E050E0BE01675F7F4F7E
:1015B00080912F06909130060E9486092A960FB6D8
:1015C000F894DEBF0FBECDBFDF91CF911F9108957C
:1015D000BF92CF92DF92EF92FF920F931F93CF9320
:1015E000DF9300D000D0CDB7DEB719821A821B82FC
:1015F0001C82F82E8E010F5F1F4F6E0185E0C80E12
:10160000D11CEE24E39487E5B82EE0923306B09225
:101610005506109234061092560660E080E497E07A
:101620000E9446076F2D80E497E00E94460780E401
:1016300097E00E94750741E061E087E50E94270579
:1016400010923206809331068823F1F080E497E00F
:101650000E94FF06F8018083F3940F5F1F4FC016AE
:10166000D10699F669817A818B819C810F900F90C8
:101670000F900F90DF91CF911F910F91FF90EF90FE
:10168000DF90CF90BF900895F8011082E5CFFC0164
:1016900001900020E9F73197AF01481B590BBC01BD
:1016A00083EA96E00C945E038F929F92AF92BF9272
:1016B0000F931F93CF93DF93CDB7DEB7A1970FB6EC
:1016C000F894DEBF0FBECDBF19A2423008F44AE045
:1016D0008E010F5D1F4F842E912CB12CA12CA501E2
:1016E00094010E94491DE62FB901CA01EA30F4F4C1
:1016F000E05DD801EE938D01232B242B252B79F768
:1017000090E080E0109719F0CD010E94470BA19660
:101710000FB6F894DEBF0FBECDBFDF91CF911F9102
:101720000F91BF90AF909F908F900895E95CE1CFAB
:10173000CF92DF92EF92FF92CF93DF936C01990FDC
:10174000EE08FF08F7FE19C06DE283EA96E00E94FA
:101750003004EC0166277727CB016C197D098E09CF
:101760009F094AE00E94540B8C0F9D1FDF91CF917F
:10177000FF90EF90DF90CF9008954AE0C701B60147
:10178000DF91CF91FF90EF90DF90CF900C94540BAE
:101790004F925F926F927F928F929F92AF92BF9281
:1017A000CF92DF92EF92FF920F931F93CF936B0133
:1017B0007C01742EAC019B010E94DB1C882399F0F4
:1017C0008BEB93E0CF911F910F91FF90EF90DF9003
:1017D000CF90BF90AF909F908F907F906F905F90D1
:1017E0004F900C94470B46015701E894B7F82FEF40
:1017F0003FEF4FE75FE7C501B4010E94DB1C811199
:101800000DC02FEF3FEF4FE75FE7C501B4010E9426
:10181000131A18161CF48FEB93E0D4CF2FEF3FEF81
:101820004FE75FE4C701B6010E94861C18161CF43E
:1018300083EC93E0C7CF2FEF3FEF4FE75FECC7019B
:10184000B6010E94131A87FDF3CF20E030E0A90112
:10185000C701B6010E94131A10E000E087FF0AC01A
:101860006DE283EA96E00E9430048C01F7FAF0946E
:10187000F7F8F094C0E060E070E080E09FE37C1651
:1018800041F020E030E040E251E40E94DE1BCF5FF7
:10189000F6CFA70196010E94721B2B013C010E940A
:1018A000571C4B015C014AE00E94540B7C01E00E86
:1018B000F11ECC23C1F1C501B4010E94181A9B018D
:1018C000AC01C301B2010E94711B4B015C016EE2CD
:1018D00083EA96E00E943004E80EF91EC15018F128
:1018E00020E030E040E251E4C501B4010E94791AE1
:1018F0002B013C010E94571C4B01B12CA12C4AE04A
:10190000C501B4010E94540BE80EF91EC501B401D3
:101910000E94181A9B01AC01C301B2010E94711B05
:101920004B015C01DBCFC701CF911F910F91FF905D
:10193000EF90DF90CF90BF90AF909F908F907F906F
:101940006F905F904F900895CF93DF9341E00E9496
:10195000C80BEC0187EC93E00E94470B8C0F9D1F96
:10196000DF91CF9108950C94470BCF93DF930E94A2
:10197000470BEC0187EC93E00E94470B8C0F9D1FF7
:10198000DF91CF910895CF93DF93EC018881998106
:10199000009711F00E940D1E198218821D821C8270
:1019A0001B821A82DF91CF910895FC018081918181
:1019B000009711F00C940D1E0895AF92BF92CF9234
:1019C000DF92EF92FF920F931F93CF93DF93DC018F
:1019D000CD90DC901197C114D10439F01496CD91BB
:1019E000DC918C017601209761F4DF91CF911F91FA
:1019F0000F91FF90EF90DF90CF90BF90AF90089540
:101A000075015701BFEFAB1ABB0AF7018081082EA1
:101A1000000C990B0E940A1A892B91F72197CC0D83
:101A2000DD1D8881082E000C990B0E940A1A892B53
:101A300029F0CE15DF0510F02197F3CFAE014F5FEF
:101A40005F4F4E195F09D80115965C934E9314971A
:101A5000CE14DF0420F4B701C6010E94531FD80141
:101A6000ED91FC91119714968D919C91E80FF91FBF
:101A70001082BBCFFB0144815581FC01248135815B
:101A80002417350778F080819181009759F0FB0188
:101A9000608171816115710529F00E94631F21E049
:101AA000892B09F020E0822F08950F931F93CF9385
:101AB000DF93EC0188819981009759F02A813B815D
:101AC0002617370730F081E0DF91CF911F910F91FA
:101AD00008958B016F5F7F4F0E94961E009759F00B
:101AE000998388831B830A832C813D81232B59F79B
:101AF000FC011082E8CF80E0E7CFEF92FF920F93D6
:101B00001F93CF93DF938C017B01EB0109900020A1
:101B1000E9F72197C61BD70BBE010E94550D811115
:101B200009C0C801DF91CF911F910F91FF90EF90F5
:101B30000C94C30CF801D583C483B70180819181D3
:101B4000DF91CF911F910F91FF90EF900C945C1F4C
:101B500085ED8093BC0080919F069091A006A09196
:101B6000A106B091A2060796A11DB11D23E0B6956E
:101B7000A795979587952A95D1F72091BC0024FDCC
:101B800003C010929D06089540919F065091A006B3
:101B90006091A1067091A206452B462B472B69F355
:101BA0000097A105B10541F02AE22A95F1F700C09E
:101BB0000197A109B109E1CF80919E060C94060519
:101BC0001F920F920FB60F9211242F933F938F9372
:101BD0009F93AF93BF938091230690912406A09189
:101BE0002506B09126063091220623E0230F2D37DB
:101BF00058F50196A11DB11D20932206809323065E
:101C000090932406A0932506B0932606809127067C
:101C100090912806A0912906B0912A060196A11D4F
:101C2000B11D8093270690932806A0932906B093B0
:101C30002A06BF91AF919F918F913F912F910F9065
:101C40000FBE0F901F90189526E8230F0296A11D36
:101C5000B11DD2CF1F920F920FB60F9211242F9366
:101C60003F934F935F936F937F938F939F93AF9324
:101C7000BF93EF93FF93E0910201F0910301099567
:101C8000FF91EF91BF91AF919F918F917F916F9154
:101C90005F914F913F912F910F900FBE0F901F902A
:101CA00018951F920F920FB60F9211242F933F9306
:101CB0004F935F936F937F938F939F93AF93BF9354
:101CC000EF93FF93E0910001F09101010995FF91DD
:101CD000EF91BF91AF919F918F917F916F915F91A4
:101CE0004F913F912F910F900FBE0F901F9018951D
:101CF0001F920F920FB60F9211242F933F934F9381
:101D00005F936F937F938F939F93AF93BF93EF9363
:101D1000FF9383EA96E00E940E04FF91EF91BF913A
:101D2000AF919F918F917F916F915F914F913F9173
:101D30002F910F900FBE0F901F9018951F920F922A
:101D40000FB60F9211242F938F939F93EF93FF93CE
:101D5000E091B306F091B4068081E091B906F0916C
:101D6000BA0682FD1BC090818091BC068F5F8F7385
:101D70002091BD06821741F0E091BC06F0E0ED55E0
:101D8000F94F958F8093BC06FF91EF919F918F91B2
:101D90002F910F900FBE0F901F9018958081F4CF58
:101DA0001F920F920FB60F9211242F933F934F93D0
:101DB0005F936F937F938F939F93AF93BF93EF93B3
:101DC000FF938091B900887F803609F44AC0F0F50E
:101DD000883209F4A7C018F5803109F49BC0B8F423
:101DE000882309F4F9C0883009F494C0FF91EF9179
:101DF000BF91AF919F918F917F916F915F914F9123
:101E00003F912F910F900FBE0F901F901895883122
:101E100009F488C0803251F780937B0614C0803467
:101E200009F49DC040F48033B9F38833F9F6809308
:101E30007B0685ECB0C0803509F485C0883509F48F
:101E400096C0883499F60E94A80DD0CF883909F43D
:101E50008CC038F5883729F050F4883611F0803777
:101E600029F683E080939D061092DD0557C08838DF
:101E700009F47BC0803919F0803809F0B7CF809120
:101E8000DD05803208F071C0E091DD0581E08E0F44
:101E90008093DD058091BB00F0E0E354FA4F80832E
:101EA0003DC0803B39F0E0F4803A09F479C0883ACB
:101EB00009F09CCF84E080939D061092BC0510929F
:101EC000BB05E0912D06F0912E0609958091BB058A
:101ED00081110FC081E08093BB0510929B0509C062
:101EE000803C09F4A6CF883C09F4A3CF883B09F0D5
:101EF0007DCFE091BC0581E08E0F8093BC05F0E0C2
:101F0000E556FA4F80818093BB009091BC0580918B
:101F1000BB0529C0809178068093BB0085EC809337
:101F2000BC0064CF90917A0680917906981758F595
:101F3000E0917A0681E08E0F80937A06F0E0E95A0C
:101F4000F94F8081E9CFE0917A0681E08E0F80938E
:101F50007A068091BB00F0E0E95AF94F80839091B6
:101F60007A06809179069817C8F285E8D8CFE09173
:101F70007A0681E08E0F80937A068091BB00F0E0B4
:101F8000E95AF94F808380917C0681115CCF81E012
:101F90008093770684EA8093BC0010929D0626CF3A
:101FA00085EC8093BC0010929D068091DD05803207
:101FB00030F4E091DD05F0E0E354FA4F10826091D7
:101FC000DD0570E0E0912B06F0912C068DEB95E09D
:101FD00009951092DD050ACF10927B0634CFE3EA13
:101FE000F6E01382128248EE53E060E070E0448332
:101FF0005583668377838BE993E09183808385ECB7
:1020000090E09587848784EC90E09787868780ECC2
:1020100090E0918B808B81EC90E0938B828B82ECB3
:1020200090E0958B848B86EC90E0978B868B118E5D
:10203000128E138E148EA0E4B7E013961C921E929B
:10204000129714964D935D936D937C9317978DEA39
:1020500093E011969C938E93E4E6F7E08AE0808308
:1020600088E0818399E09283ECE4F7E0118A148A96
:10207000158A168A178A1682158220E031E0308789
:10208000278320E830E032872187138691E0948708
:10209000158693E096872FEF3FEF308B278798E4E4
:1020A0009283B38BA28B95E390838383148284E025
:1020B00081830895CF93DF93CDB7DEB7A6970FB690
:1020C000F894DEBF0FBECDBF789484B5826084BD26
:1020D00084B5816084BD85B5826085BD85B581602C
:1020E00085BD80916E00816080936E0010928100AA
:1020F0008091810082608093810080918100816065
:102100008093810080918000816080938000809125
:10211000B10084608093B1008091B00081608093B1
:10212000B00080917A00846080937A0080917A0078
:10213000826080937A0080917A00816080937A0037
:1021400080917A00806880937A001092C100E091BB
:10215000B306F091B40682E08083E091AF06F0917F
:10216000B0061082E091B106F091B2068FEC808348
:102170001092BB06E091B706F091B80686E0808326
:10218000E091B506F091B606808180618083E09190
:10219000B506F091B606808188608083E091B5062F
:1021A000F091B606808180688083E091B506F09159
:1021B000B60680818F7D80838AEC93E00E94B50C07
:1021C00061E083E00E94390260E083E00E949901AF
:1021D00062E084E00E94390262E086E00E943902F7
:1021E00062E085E00E94390261E08DE00E943902E0
:1021F00062E082E00E94390289ED92E09093010151
:102200008093000180916900836080936900E89A5F
:1022100060E08FE00E94390260E080E10E943902B4
:102220000E94EF0480912F0690913006009711F0E4
:102230000E940D1E86E090E00E94711D8C0188E6D0
:10224000F801808380E497E092838183138280E2A7
:1022500090E0958384831093300600932F060E94AC
:10226000EF0481E0F8018383C8010E94780781119F
:10227000F2C082E194E00E94B50C61E080916507B4
:102280000E94390261E0809166070E94390261E094
:10229000809164070E94390261E0809164070E9486
:1022A000990161E0809166070E94990161E0809147
:1022B00065070E949901E7E6F7E087E797E011924A
:1022C0008E179F07E1F76AE070E080E090E00E94DF
:1022D0009A0210E060E0812F0E94F6011F5F10312A
:1022E000C9F782E50E94200280E30E94200280E07C
:1022F0000E9420028AE00E94200282E00E942002C6
:1023000086E00E94200210E060E0812F0E94F6012A
:102310001F5F1031C9F7EEEDF5E08EEE95E01192FA
:102320008E179F07E1F790914E0788EB890F843055
:1023300080F420915E0730915F0781E0809333063F
:10234000909355061092340610925606C9010E94C9
:10235000750790E080E00E94E80A6093EF057093B3
:10236000F0058093F1059093F20584E090E00E94DF
:10237000E80A6093FD057093FE058093FF05909336
:10238000000683E494E00E94B30C6091EF05709125
:10239000F0058091F1059091F2050E94A40C8AE568
:1023A00094E00E94B30C6091FD057091FE05809150
:1023B000FF05909100060E94A40C0E94CD0260933C
:1023C000010670930206809303069093040681E051
:1023D00080938603109205061AE0412E512C612C41
:1023E000712CBAE02B2E312C83EA96E00E94EE038A
:1023F000181619060CF0AEC11A8E198E1C8E1B8E83
:102400001E8E1D8E69EC73E0CE0149960E947D0DF3
:102410000E94AE0397FD9BC08A30910509F497C0D6
:1024200089831A820D8D1E8D0F5F1F4FB801CE015B
:1024300049960E94550D882359F3298D3A8D8D8D2B
:102440009E8DBE016F5F7F4F820F931F0E945C1FA6
:102450001E8F0D8FDDCF0E941C0A90E0880F892F00
:10246000881F990B892B09F408CF4BE050E06BECE7
:1024700070E0CE0101960E94CD19CE010A960E940D
:102480009D048D87E981E154E33110F50E2E000C97
:10249000FF0BE35BFD4E0C946B1D911268126812EA
:1024A000A51268128F126812681268126012681200
:1024B00068129812A312A1126812681268129F1271
:1024C0008A81813641F18B818E3639F586E08E879F
:1024D000CE0105960E949D048F8748E050E062EC93
:1024E00070E0CE0101960E94CD19CE0101960E94A6
:1024F0009D04888BCE0104960E949D04898BCE0199
:1025000007960E949D048A8BCE010D960E94400A78
:1025100081E294E0B0CE81E0DACF87E0D8CF82E0EC
:10252000D6CF8B81823711F484E0D1CF88E0CFCF32
:102530008B81823711F483E0CACF85E0C8CF89E070
:10254000C6CF8AE0C4CF8BE0C2CF8CE0C0CFCE0133
:1025500049960E94DD0C83E794E00E94B30C4D8DF8
:102560005E8D698D7A8D83EA96E00E945E038BE82A
:1025700094E00E94B50C1A8219821C821B821E8272
:102580001D826DE874E0CE0101960E947D0DBE01B2
:102590006F5F7F4FCE0149960E943A0D182FCE01F2
:1025A00001960E94D50C112309F421C3ED8CFE8CF9
:1025B000F7E0CF2ED12CF7E0EF16F10420F0670101
:1025C000A7E0EA2EF12C1C8A1B8A1E8A1D8A188E0F
:1025D0001F8A69EC73E0CE0143960E947D0D0D8D3C
:1025E0001E8DE016F10650F5C016D10608F48601DE
:1025F000E98DFA8DE00FF11FB0801082898D9A8DE0
:10260000E80EF91EE114F10479F0F70101900020C1
:10261000E9F731976F01CE18DF08B601CE01439676
:102620000E94550D81112FC0CE0143960E94C30C0C
:10263000898D9A8D080F191FF801B082CE0143963B
:102640000E94DD0C60E975E08B899C890E94D61997
:102650008E010F5F1F4FF12CE12C0097E1F0F6E0A7
:10266000EF16F104E9F00E94AF19F80181939193FC
:102670008F0160E975E090E080E00E94D619FFEFDD
:10268000EF1AFF0AEACFD88ECF8AB7018B899C89CF
:102690000E945C1FCDCF26E0E216F10409F0A2C231
:1026A00009811A81BB803C813F8FCD804E8148A338
:1026B000DF808884E9849A84FB84AC84C801003D6F
:1026C00057E0150710F0805D97408D87BE86CF8656
:1026D000D88AE98AFA8ACE010D960E94400A85E9D5
:1026E00094E00E94B30CC8010E94980B83EA94E026
:1026F0000E94B30C8B2D9F8D0E94980B83EA94E06F
:102700000E94B30C8C2D98A10E94980B80E995E053
:102710000E94B30C8D2D982D0E94980B85EA94E0B1
:102720000E94B30C8E2D992D0E94980B85EA94E09F
:102730000E94B30C8F2D9A2D0E94980B87EC93E08A
:102740000E94470BCE0143960E94D50CCE014996BC
:102750000E94D50C0E94CD024B015C0180911E06A7
:1027600090911F06A0912006B0912106A501940129
:10277000281B390B4A0B5B0BDA01C9018D3D9540D3
:10278000A105B10508F463C210921A0610921B0647
:1027900010921C0610921D0680911206909113064D
:1027A000A0911406B0911506A5019401281B390BC0
:1027B0004A0B5B0BDA01C901883E9340A105B105C4
:1027C00008F442C18092120690921306A092140659
:1027D000B0921506198200912F061091300620E064
:1027E00041E050E0BE016F5F7F4FC8010E94860943
:1027F000882341F047E050E0BE016F5F7F4FC80182
:102800000E94B60949814F775A812B81822F90E02F
:1028100064E0959587956A95E1F7982F990F990F40
:10282000891B880F820F90E0909311068093100609
:10283000252F30E074E0359527957A95E1F7822FC2
:10284000880F880F281B220F250F30E030930F06CA
:1028500020930E06842F90E0E4E095958795EA9505
:10286000E1F7982F990F990F891B880F840F90E03B
:1028700090930D0680930C0682E480937C008091F7
:102880007A00806480937A0080917A0086FDFCCF84
:10289000809178009091790080914D07811111C24B
:1028A000C12CD12C7601A701960160E070E080EA8E
:1028B00090E40E94711B20E030E44CE156E40E9459
:1028C000791AA70196010E94DE1B20E030E44CE15A
:1028D00056E40E94DE1B0E94931C2CE23BEB44E872
:1028E00059E30E94791A2FE03FEC4BE55BE30E942D
:1028F000721B9B01AC0160E070E080E89FE30E94E6
:10290000DE1B23E333E948E853E40E94711B20E017
:1029100030E040E451E40E94711B20E030E040E0F0
:102920005FE30E94721B0E94501C70930B06609321
:102930000A0680914D07823008F0CFC160E070E058
:10294000CB0120E030E040E651E40E94791A609328
:1029500006067093070680930806909309068091F7
:10296000100690911106892B09F0C1C180910E06C5
:1029700090910F06892B09F0BAC18091EE05811163
:102980001BC01092EF051092F0051092F105109205
:10299000F20583E395E00E94B50C4091EF0550915C
:1029A000F0056091F1057091F20590E080E00E94E1
:1029B000230881E08093EE0580910C0690910D062E
:1029C000B1010E94351D8B01809104019091050198
:1029D00068177907C9F14091EF055091F0056091B2
:1029E000F1057091F20590E080E00E94230840918B
:1029F000FD055091FE056091FF057091000684E091
:102A000090E00E94230885E595E00E94B30C609158
:102A1000EF057091F0058091F1059091F20541E08C
:102A20000E94C80B8EE895E00E94B30C6091FD05F2
:102A30007091FE058091FF05909100060E94A40C04
:102A4000109305010093040110918603112309F4EA
:102A5000E7C180910506811105C00E940F0881E041
:102A6000809305068091010690910206A0910306CD
:102A7000B0910406A5019401281B390B4A0B5B0B8E
:102A8000DA01C90180319742A105B10508F03FC1C3
:102A9000C090FD05D090FE05E090FF05F090000687
:102AA00020E030E0A901C701B6010E94131A87FD9A
:102AB00021C12EEF33E244E759E4C701B6010E9479
:102AC000861C18160CF41AC120E030E040E251E4F4
:102AD000C701B6010E94791A20E030E040E05FE3D0
:102AE0000E94721B0E94571C6B017C0120E432E49F
:102AF0004FE050E00E94491DCA01B901A3019201B3
:102B00000E94491D862F40E066EA71E00E94C007DE
:102B1000C701B60120EA36E841E050E00E94491DB5
:102B2000CA01B901A30192010E94491D862F40E00C
:102B300066E871E00E94C007C701B60120E137E2F4
:102B400040E050E00E94491DCA01B901A301920171
:102B50000E94491D862F40E066E671E00E94C00792
:102B6000C701B60128EE33E040E050E00E94491D65
:102B7000CA01B901A30192010E94491D862F40E0BC
:102B800066E471E00E94C007C701B60124E630E0A8
:102B900040E050E00E94491DCA01B901A301920121
:102BA0000E94491D862F40E066E271E00E94C00746
:102BB000C701B601A30192010E94491DCA01B901D2
:102BC000A30192010E94491D862F40E066E071E05A
:102BD0000E94C00741E070E060E086E090E00E9463
:102BE000A10799C087EA94E00E94B50CABCD1A8288
:102BF00019821C821B821E821D8260EE74E0CE014F
:102C000001960E947D0DBE016F5F7F4FCE014996F8
:102C10000E943A0D182FCE0101960E94D50C86E035
:102C200095E0112389F01092FD051092FE05109297
:102C3000FF051092000640E050E0BA0184E090E009
:102C40000E9423088BEE94E00E94B50C7FCD80910A
:102C5000160690911706A0911806B0911906892BB7
:102C60008A2B8B2B09F498CD60911606709117066C
:102C700080911806909119060E94181A9B01AC01C8
:102C800060E074E284E799E40E94DE1B20E030E01B
:102C900048EB51E40E94DE1B2EE038EF4CEF5AE384
:102CA0000E94791A20E030E041E655E40E94791A4A
:102CB00060931A0670931B0680931C0690931D0662
:102CC0006BCD80E090E40E94BE08009709F4E8CD47
:102CD0000E94C9006B017C01E6CD80E090E50E9476
:102CE000BE08009709F42ACE0E94C9002ACE10928D
:102CF000EE0562CEC12CD12C7601E6CE3EEFC32E7E
:102D000033E2D32E34E7E32E39E4F32EDDCE1092F6
:102D100086030E940F0886E00E9470017C0185E016
:102D20000E9470018C0184E00E9470016C0141E0FE
:102D3000E114F10409F040E064E070E089E090E023
:102D40000E94A10741E00115110509F040E063E090
:102D500070E08BE090E00E94A10741E0CD2809F0EF
:102D600040E062E070E08BE090E00E94A107EF2875
:102D700019F060E0012B09F461E083E00E94990101
:102D80008091F8059091F905A091FA05B091FB05A5
:102D9000A5019401281B390B4A0B5B0BDA01C90111
:102DA0002091FC052111A4C2803D9740A105B105E9
:102DB00078F061E08DE00E94990181E08093FC054C
:102DC0008092F8059092F905A092FA05B092FB0561
:102DD00020E030E044E752E4609106067091070677
:102DE00080910806909109060E94131A18160CF09B
:102DF0008CC21092F7054091F70570E060E08FE01B
:102E000090E00E94A10780E090E0892B09F4ECCAD1
:102E10000E94FA03882309F4E4CA0E940000E1CA70
:102E2000C090EF05D090F005E090F105F090F2052C
:102E300020E030E0A901C701B6010E94131A87FD06
:102E400036C020E030EC49E754E4C701B6010E94E7
:102E5000861C18160CF433C220E030E048EC52E433
:102E6000C701B6010E94131A87FD24C020E030E09C
:102E700040E05FE3C701B6010E94721B0E94501C34
:102E8000FB01683E734014F0E7EEF3E0CF0164E627
:102E900070E00E94351D262FCF01B1010E94351D23
:102EA000F82ECB01B1010E94351D082F2AC0C12C7C
:102EB000D12C7601C701B6010E94501C8B01072E50
:102EC000000C880B990B0E941A1A9B01AC01C701D8
:102ED000B6010E94711B20E030E040E251E40E9404
:102EE000791A20E030E040E05FE30E94721B0E940C
:102EF000501CF62EC801B1010E94351D262F082F47
:102F000011E040E066E072E0822F0E94C007412F8E
:102F100066EE71E0802F0E94C00740E066EC71E031
:102F20008F2D0E94C00741E070E060E086E090E0F5
:102F30000E94A10750911A065F8F80911B0688A3FB
:102F4000E0911C06EDA3F0911D06FEA320E030E009
:102F5000A9016F8D782FCF010E94131A87FDB7C189
:102F600020E030E047E453E46F8D78A18DA19EA16D
:102F70000E94861C18160CF4AFC15F8D48A13DA1BC
:102F80002EA1652F742F832F922F0E94501C69A3AE
:102F90007AA38BA39CA309A11AA141E004361105D1
:102FA0000CF440E067E070E087E090E00E94A10749
:102FB00089A19AA1043611050CF4CCC1845691095B
:102FC0008436910514F083E690E0B1010E94351D2E
:102FD000962F182F40E066E472E0892F0E94C00708
:102FE00040E066E272E0812F0E94C00741E066E0A7
:102FF00070E08CE090E00E94A107C0900606D0909F
:103000000706E0900806F090090611E02DEC3CEC74
:1030100047EC52E4C701B6010E94861C18160CF05A
:1030200010E0412F64E070E08CE090E00E94A10786
:1030300020E030E046E153E4C701B6010E94861C5F
:10304000181634F4C12CD12C96E1E92E93E4F92E14
:1030500020E030E040E251E4C701B6010E94791A55
:1030600020E030E040E05FE30E94721B0E94501CB1
:103070008B01CB0164E670E00E94351DCB01B101EC
:103080000E94351D40E066EA72E00E94C007C80158
:10309000B1010E94351D182FCB01B1010E94351DD1
:1030A00041E066E872E00E94C00740E066E672E038
:1030B000812F0E94C00741E067E070E08FE090E060
:1030C0000E94A10780910B06E82EEE1CEE24EE1C58
:1030D00000910A06182F0436110514F003E610E0DB
:1030E000073F2FEF120714F407EF1FEF40E063E0F4
:1030F00070E089E090E00E94A107EE2019F01195A0
:1031000001951109C801B1010E94351D962F182F94
:1031100040E066EE72E0892F0E94C00740E066EC56
:1031200072E0812F0E94C0074E2D63E070E08AE0BC
:1031300090E00E94A10741E070E060E08BE090E049
:103140000E94A107E0911006F0911106CF01E8312D
:10315000F10514F087E190E097FF02C090E080E075
:1031600020910E0630910F062C33310514F02BE31D
:1031700030E037FF02C030E020E0B1010E94351D91
:103180008B01E82EC901B1010E94351DF62E89A3DD
:103190000115110509F0A5C03A970CF0A2C006E68A
:1031A00013E086E8C82E83E0D82EF8018081918153
:1031B00097FD07C06281738177FD03C040E00E94E4
:1031C000B7070C5F1F4FC016D10679F740E066E4E1
:1031D00073E08E2D0E94C00740E066E273E08F2D01
:1031E0000E94C00740E066E073E089A10E94C0072A
:1031F00041E063E070E083E090E00E94A1076F8D02
:1032000078A18DA19EA10E94501C8B0140E063E03B
:1032100070E081E090E00E94A10740E063E070E090
:1032200090E080E00E94A10740E067E070E088E065
:1032300090E00E94A10740E067E070E08CE090E041
:103240000E94A10740E067E070E08EE090E00E94FD
:10325000A1070A3011050CF45ECD41E063E070E097
:1032600081E090E00E94A107043111050CF453CDD8
:1032700041E063E070E090E080E00E94A107083246
:1032800011050CF448CD41E067E070E088E090E083
:103290000E94A1070C3311050CF43DCD41E067E01D
:1032A00070E08CE090E00E94A1070A3511050CF453
:1032B00032CD41E067E070E08EE090E090CCC12C30
:1032C00020ECD22E29E7E22E24E4F22ECFCD50E0DE
:1032D00040E030E020E055CE50E040E037E423E429
:1032E00050CE40E066E673E0802F0E94C0076ECFAC
:1032F00086349105A105B10508F46ACD60E08DE042
:103300000E9499011092FC0563CD8091F305909184
:10331000F405A091F505B091F605A5019401281BCF
:10332000390B4A0B5B0BDA01C9018C329140A105C4
:10333000B10508F460CD8091F7058092F305909275
:10334000F405A092F505B092F60591E089278093E7
:10335000F70551CD97FF39CE90E080E036CEFC01E5
:1033600088279927E89421912032E9F3293010F039
:103370002E30C8F32B3241F02D3239F4689404C05A
:103380000E94021A820F911D219120532A30C0F30E
:103390001EF4909581959F4F0895FB01DC0102C0BA
:1033A00005900D9241505040D8F7089547E757E0F7
:1033B0000E94DB190895FA01A191B081009719F4D8
:1033C0001097E1F0CD01DC01CD010D90002011F44A
:1033D000C00113C0FB012191222319F02015D9F758
:1033E000F3CFFB012191201519F41E92119606C00E
:1033F0002223C1F70D900020A1F7D001FA01A1937B
:10340000B08308957AE0979F902D879F802D910D2E
:103410001124089591110C94E61A803219F0895004
:103420008550C8F708950E94551A08F481E0089560
:10343000E89409C097FB3EF490958095709561954E
:103440007F4F8F4F9F4F9923A9F0F92F96E9BB2704
:103450009395F695879577956795B795F111F8CF80
:10346000FAF4BB0F11F460FF1BC06F5F7F4F8F4FEB
:103470009F4F16C0882311F096E911C0772321F0E1
:103480009EE8872F762F05C0662371F096E8862F79
:1034900070E060E02AF09A95660F771F881FDAF7D0
:1034A000880F9695879597F90895990F0008550FFD
:1034B000AA0BE0E8FEEF16161706E807F907C0F0BA
:1034C00012161306E407F50798F0621B730B840BC2
:1034D000950B39F40A2661F0232B242B252B21F49C
:1034E00008950A2609F4A140A6958FEF811D811D3C
:1034F00008950E948C1A0C94001B0E94F21A38F056
:103500000E94F91A20F0952311F00C94E91A0C94FA
:10351000EF1A11240C94341B0E94111B70F3959F19
:10352000C1F3950F50E0551F629FF001729FBB27BA
:10353000F00DB11D639FAA27F00DB11DAA1F649F56
:103540006627B00DA11D661F829F2227B00DA11D09
:10355000621F739FB00DA11D621F839FA00D611D8F
:10356000221F749F3327A00D611D231F849F600DB0
:10357000211D822F762F6A2F11249F5750409AF0D9
:10358000F1F088234AF0EE0FFF1FBB1F661F771F65
:10359000881F91505040A9F79E3F510580F00C9430
:1035A000E91A0C94341B5F3FE4F3983ED4F38695FC
:1035B00077956795B795F795E7959F5FC1F7FE2BD0
:1035C000880F911D9695879597F9089599278827D3
:1035D000089597F99F6780E870E060E008959FEF95
:1035E00080EC089500240A9416161706180609069A
:1035F000089500240A941216130614060506089569
:10360000092E0394000C11F4882352F0BB0F40F4F0
:10361000BF2B11F460FF04C06F5F7F4F8F4F9F4F30
:10362000089557FD9058440F551F59F05F3F71F0B2
:103630004795880F97FB991F61F09F3F79F0879519
:103640000895121613061406551FF2CF4695F1DFA2
:1036500008C0161617061806991FF1CF8695710532
:10366000610508940895E894BB2766277727CB0166
:1036700097F908952F923F924F925F926F927F92A7
:103680008F929F92AF92BF92CF92DF92EF92FF9272
:103690000F931F93CF93DF93CDB7DEB7CA1BDB0B1E
:1036A0000FB6F894DEBF0FBECDBF09942A883988C3
:1036B00048885F846E847D848C849B84AA84B984CA
:1036C000C884DF80EE80FD800C811B81AA81B981D6
:1036D000CE0FD11D0FB6F894DEBF0FBECDBFED01EA
:1036E00008955058BB27AA270E94891B0C94001BE1
:1036F0000E94F21A38F00E94F91A20F039F49F3F24
:1037000019F426F40C94EF1A0EF4E095E7FB0C94F0
:10371000E91AE92F0E94111B58F3BA1762077307C1
:103720008407950720F079F4A6F50C94331B0EF46A
:10373000E0950B2EBA2FA02D0B01B90190010C01C1
:10374000CA01A0011124FF27591B99F0593F50F4D9
:10375000503E68F11A16F040A22F232F342F442731
:10376000585FF3CF469537952795A795F040539529
:10377000C9F77EF41F16BA0B620B730B840BBAF0F9
:103780009150A1F0FF0FBB1F661F771F881FC2F764
:103790000EC0BA0F621F731F841F48F48795779578
:1037A0006795B795F7959E3F08F0B0CF9395880F32
:1037B00008F09927EE0F9795879508950E94F21BC0
:1037C0000C94001B0E94F91A58F00E94F21A40F063
:1037D00029F45F3F29F00C94E91A51110C94341B21
:1037E0000C94EF1A0E94111B68F39923B1F355232F
:1037F00091F3951B550BBB27AA2762177307840704
:1038000038F09F5F5F4F220F331F441FAA1FA9F399
:1038100035D00E2E3AF0E0E832D091505040E69587
:10382000001CCAF72BD0FE2F29D0660F771F881FE8
:10383000BB1F261737074807AB07B0E809F0BB0BDB
:10384000802DBF01FF2793585F4F3AF09E3F5105EF
:1038500078F00C94E91A0C94341B5F3FE4F3983E23
:10386000D4F3869577956795B795F7959F5FC9F7D8
:10387000880F911D9695879597F90895E1E0660F59
:10388000771F881FBB1F621773078407BA0720F0D2
:10389000621B730B840BBA0BEE1F88F7E09508953B
:1038A0000E94571C6894B1110C94341B08950E9417
:1038B000191B88F09F5798F0B92F9927B751B0F08E
:1038C000E1F0660F771F881F991F1AF0BA95C9F7A4
:1038D00014C0B13091F00E94331BB1E008950C94F4
:1038E000331B672F782F8827B85F39F0B93FCCF3A7
:1038F000869577956795B395D9F73EF49095809521
:10390000709561957F4F8F4F9F4F08950E94551A74
:1039100008F48FEF089516F00C94E01C0C94EF1A45
:1039200068940C94E91A0E94191BA8F39923C1F317
:10393000AEF3DF93CF931F930F93FF92C92FDD2731
:1039400088232AF02197660F771F881FDAF720E077
:1039500030E040E85FEB9FE3883920F0803E38F0AC
:1039600021968F770E94721BE8E6F0E004C00E9467
:10397000721BE5E9F0E00E94EE1C8B01BE01EC0138
:10398000FB2E6F5771097595771F880B990B0E9455
:103990001A1A28E132E741E35FE30E948C1AAF2D47
:1039A0009801AE01FF900F911F91CF91DF910E947E
:1039B000891B0C94001B0E94551A880B990B0895C3
:1039C0009F3F31F0915020F4879577956795B79593
:1039D000880F911D9695879597F90895DF93CF935A
:1039E0001F930F93FF92EF92DF927B018C016894FB
:1039F00006C0DA2EEF010E948C1AFE01E894A59110
:103A00002591359145915591A6F3EF010E94891BAF
:103A1000FE019701A801DA9469F7DF90EF90FF901B
:103A20000F911F91CF91DF910895991B79E004C008
:103A3000991F961708F0961B881F7A95C9F78095ED
:103A40000895AA1BBB1B51E107C0AA1FBB1FA617E5
:103A5000B70710F0A61BB70B881F991F5A95A9F737
:103A600080959095BC01CD01089597FB072E16F423
:103A7000009407D077FD09D00E94211D07FC05D0D6
:103A80003EF4909581959F4F0895709561957F4F75
:103A90000895A1E21A2EAA1BBB1BFD010DC0AA1F8F
:103AA000BB1FEE1FFF1FA217B307E407F50720F0A7
:103AB000A21BB30BE40BF50B661F771F881F991F22
:103AC0001A9469F760957095809590959B01AC016B
:103AD000BD01CF010895EE0FFF1F0590F491E02D79
:103AE00009940F931F93CF93DF938230910510F4C5
:103AF00082E090E0E0917B07F0917C0730E020E0ED
:103B0000B0E0A0E0309799F42115310509F44AC0DE
:103B1000281B390B24303105D8F58A819B8161152A
:103B2000710589F1FB0193838283FE0111C04081FD
:103B300051810281138148175907E0F0481759074E
:103B400099F4109761F012960C93129713961C93A8
:103B50003296CF01DF91CF911F910F91089500937D
:103B60007B0710937C07F4CF2115310551F04217E4
:103B7000530738F0A901DB019A01BD01DF01F8010B
:103B8000C1CFEF01F9CF90937C0780937B07CDCF16
:103B9000FE01E20FF31F8193919322503109398383
:103BA0002883D7CF2091790730917A07232B41F4CE
:103BB0002091890330918A0330937A072093790703
:103BC00020918703309188032115310541F42DB7E9
:103BD0003EB740918B0350918C03241B350BE09131
:103BE0007907F0917A07E217F307A0F42E1B3F0B39
:103BF0002817390778F0AC014E5F5F4F241735075F
:103C000048F04E0F5F1F50937A07409379078193D6
:103C100091939FCFF0E0E0E09CCFCF93DF930097AC
:103C2000E9F0FC01329713821282A0917B07B091D8
:103C30007C07ED0130E020E01097A1F42081318174
:103C4000820F931F2091790730917A07281739073F
:103C500009F061C0F0937A07E0937907DF91CF9183
:103C60000895EA01CE17DF07E8F54A815B819E01DE
:103C700041155105B1F7E901FB83EA834991599157
:103C8000C40FD51FEC17FD0761F480819181029666
:103C9000840F951FE90199838883828193819B8397
:103CA0008A83F0E0E0E012968D919C911397009743
:103CB000B9F52D913C911197CD010296820F931F7A
:103CC0002091790730917A072817390739F630970C
:103CD00051F510927C0710927B07B0937A07A0935E
:103CE0007907BCCFD383C28340815181840F951F54
:103CF000C817D90761F44E5F5F4F88819981480FDB
:103D0000591F518340838A819B819383828321152C
:103D1000310509F0B0CFF0937C07E0937B079ECF8D
:103D2000FD01DC01C0CF13821282D7CFB0E0A0E04A
:103D3000ECE9FEE10C943C1B8C01009751F4CB01A3
:103D40000E94711D8C01C801CDB7DEB7E0E10C9473
:103D5000581BFC01E60FF71F9C0122503109E217A6
:103D6000F30708F49DC0D901CD91DC911197C617D6
:103D7000D70798F0C530D10530F3CE0104978617E8
:103D8000970708F3C61BD70B2297C193D1936D9366
:103D90007C93CF010E940D1ED6CF5B01AC1ABD0AE9
:103DA0004C018C0E9D1EA0917B07B0917C07512C7D
:103DB000412CF12CE12C109731F5809179079091ED
:103DC0007A078815990509F05CC04616570608F071
:103DD00058C08091870390918803009741F48DB774
:103DE0009EB740918B0350918C03841B950BE81771
:103DF000F90708F055C0F0937A07E0937907F901C5
:103E000071836083A0CF8D919C91119712966C90D5
:103E1000129713967C901397A815B90559F56C0164
:103E200042E0C40ED11CCA14DB0420F1AC014A19D3
:103E30005B09DA011296159780F0628273825183D2
:103E40004083D9016D937C93E114F10471F0D701A3
:103E50001396FC93EE93129776CF22968C0F9D1FAC
:103E6000F90191838083F301EFCFF0937C07E09316
:103E70007B0769CF4816590608F42C017D01D30150
:103E80009ACFCB010E94711D7C01009749F0AE01D1
:103E9000B8010E94531FC8010E940D1E870153CF15
:103EA00010E000E050CFFB01DC0102C001900D9258
:103EB00041505040D8F70895FB01DC0101900D926C
:103EC0000020E1F70895FB01DC014150504030F043
:103ED0008D910190801919F40020B9F7881B990B76
:103EE0000895F894FFCF5D035D03FFFF0500030015
:103EF000060006000600050006000400050000009C
:103F00000500020005000100FFFFFFFF040007009D
:103F1000050006000500050005000400040004007B
:103F2000040006000400050005000700000007006B
:103F3000040002000400010004000000000004006E
:103F40000000060000000500FFFFFFFF0100070062
:103F50000000020000000100000000000100040059
:103F60000100060001000500FFFFFFFF020007003F
:103F70000100020001000100010000000200040035
:103F80000200060002000500FFFFFFFF030007001C
:103F90000200020002000100020000000300040011
:103FA0000300060003000500FFFFFFFF05000300FC
:103FB00006000600060005000600040005000000DB
:103FC0000500020005000100FFFFFFFF04000700DD
:103FD00005000600050005000500040004000400BB
:103FE00004000600040005000500070000000700AB
:103FF00004000200040001000400000000000400AE
:104000000000060000000500FFFFFFFF080003009E
:104010000800020008000100080000000800040079
:104020000800060008000500FFFFFFFF070003006F
:10403000070002000700010007000000070004005D
:104040000700060007000500FFFFFFFF0E0003004A
:104050000F0006000F0005000F0004000E00000016
:104060000E0002000E000100FFFFFFFF0D00030025
:104070000E0006000E0005000E0004000D000000FA
:104080000D0002000D000100FFFFFFFF0C00030008
:104090000D0006000D0005000D0004000C000000DE
:1040A0000C0002000C000100FFFFFFFF0B000400EA
:1040B0000B0005000B0006000B0007000A000200C1
:1040C0000A0000000A000100FFFFFFFF0A000400D1
:1040D0000A0005000A0006000A00070009000200A5
:1040E0000900000009000100FFFFFFFF01000700B9
:1040F00000000200000001000000000001000400B8
:104100000100060001000500FFFFFFFF020007009D
:104110000100020001000100010000000200040093
:104120000200060002000500FFFFFFFF030007007A
:10413000020002000200010002000000030004006F
:104140000300060003000500FFFFFFFF030002005D
:104150000200030003000100FFFFFFFFFFFFFFFF5E
:10416000FFFFFFFFFFFFFFFFFFFFFFFF0100007DDD
:104170000780003F065B4F666D7D077F6F00000084
:104180000030045E038B037D04EE039A03E003001A
:10419000000000460719079E07EF061207FF06F00A
:1041A000066E616E00696E66006F7666000D0A002D
:1041B0003D3D3D2046756C6C20636F6465207769DA
:1041C0007468204265746120666F726D756C612041
:1041D000696E206D65617375726554656D70657289
:1041E00061747572655261772829202B206F66668D
:1041F000736574203D3D3D00525443206E6F742022
:10420000666F756E642100525443206C6F73742086
:10421000706F7765722C2073657420636F6D7069A1
:104220006C652074696D6521004C6F616465642064
:104230006461696C7944697374616E63653A2000E6
:104240004C6F6164656420746F74616C4F646F6D52
:10425000657465724B6D3A200053657269616C201C
:10426000636F6D6D616E6420696E7075743A205B6A
:10427000005D0053455454494D450054696D652017
:1042800073657420746F3A20002F003A00496E76EF
:10429000616C69642053455454494D4520666F72E2
:1042A0006D61742E205573653A2053455454494D21
:1042B000452059595959204D4D2044442048482003
:1042C0006D6D207373005245534554544F54414C07
:1042D00000546F74616C206F646F6D65746572203B
:1042E000726573657420746F20302100556E6B6E9B
:1042F0006F776E20636F6D6D616E642028757365D6
:104300002053455454494D45206F72205245534522
:1043100054544F54414C2921004461696C79206404
:10432000697374616E63652052455345542061740E
:10433000206D69646E6967687421005361766564F5
:10434000206461696C7944697374616E63652026C9
:1043500020746F74616C4F646F6D65746572206951
:104360006E2045585420454550524F4D28313073EA
:08437000293A2000202F200053
:107E0000112484B714BE81FFF0D085E080938100F7
:107E100082E08093C00088E18093C10086E0809377
:107E2000C20080E18093C4008EE0C9D0259A86E02C
:107E300020E33CEF91E0309385002093840096BBD3
:107E4000B09BFECF1D9AA8958150A9F7CC24DD24C4
:107E500088248394B5E0AB2EA1E19A2EF3E0BF2EE7
:107E6000A2D0813461F49FD0082FAFD0023811F036
:107E7000013811F484E001C083E08DD089C08234E0
:107E800011F484E103C0853419F485E0A6D080C0E4
:107E9000853579F488D0E82EFF2485D0082F10E0AE
:107EA000102F00270E291F29000F111F8ED06801E7
:107EB0006FC0863521F484E090D080E0DECF843638
:107EC00009F040C070D06FD0082F6DD080E0C81688
:107ED00080E7D80618F4F601B7BEE895C0E0D1E017
:107EE00062D089930C17E1F7F0E0CF16F0E7DF06D8
:107EF00018F0F601B7BEE89568D007B600FCFDCFD4
:107F0000A601A0E0B1E02C9130E011968C91119780
:107F100090E0982F8827822B932B1296FA010C0160
:107F200087BEE89511244E5F5F4FF1E0A038BF0790
:107F300051F7F601A7BEE89507B600FCFDCF97BE46
:107F4000E89526C08437B1F42ED02DD0F82E2BD052
:107F50003CD0F601EF2C8F010F5F1F4F84911BD097
:107F6000EA94F801C1F70894C11CD11CFA94CF0C13
:107F7000D11C0EC0853739F428D08EE10CD085E9AC
:107F80000AD08FE07ACF813511F488E018D01DD067
:107F900080E101D065CF982F8091C00085FFFCCF94
:107FA0009093C60008958091C00087FFFCCF809118
:107FB000C00084FD01C0A8958091C6000895E0E648
:107FC000F0E098E1908380830895EDDF803219F02E
:107FD00088E0F5DFFFCF84E1DECF1F93182FE3DFCA
:107FE0001150E9F7F2DF1F91089580E0E8DFEE27F6
:047FF000FF270994CA
:027FFE00040479
:00000001FF
